:030000000201F901
:0C01F900787FE4F6D8FD7581110201D179
:05023A000000000000BF
:0902050012020E12020E12020E8A
:02020E000022CC
:1001B300D3EF9400EE940040147D787C00ED1D7025
:0D01C300011CED4C70F7EF1F70E61E80E38D
:0101D000220C
:1000F900780D7C007D007BFF7A02793A7E007F05CE
:100109001200D3C2B07F147E001201B3D2B0120222
:100119000520B0FD30B0FD20B0FDE4FFE4FE30B0B5
:10012900FD12020512020E740D2FF8C000E625E03B
:10013900D000F630B008740D2FF8E64401F620B06F
:10014900FD0EBE08D90FBF05D3850D0B850E088599
:100159000F0C85100985110AE50B2508FFE433FE0C
:100169007C00EF250CFFEC3EFEEF2509FFEC3EFE7F
:0D017900EFB50A07ECB506037F01227F00F9
:010186002256
:1001E600C2A0C2A1C2A4C2A2C2A3C2A5C290C29109
:0301F600C2922290
:07021000D2A0C2A1D2A4227A
:07021700C2A0C2A1C2A42293
:07021E00D2A2C2A3D2A52267
:07022500C2A2C2A3C2A52280
:07022C00D290C291D2922290
:07023300C290C291C29222A9
:10018700E50CD3941E40051202108003120217E5F6
:100197000CC39414500512021E8003120225E50BAE
:0C01A700D3943C400302022C12023322CD
:1001D1001201E61200F9BF01031201877FE87E03D5
:0501E1001201B380EEE5
:10000300E709F608DFFA8046E709F208DFFA803EDF
:1000130088828C83E709F0A3DFFA8032E309F608CC
:10002300DFFA8078E309F208DFFA807088828C8334
:10003300E309F0A3DFFA806489828A83E0A3F608E8
:10004300DFFA805889828A83E0A3F208DFFA804CC2
:1000530080D280FA80C680D4806980F28033801099
:1000630080A680EA809A80A880DA80E280CA803302
:1000730089828A83ECFAE493A3C8C582C8CCC5837A
:10008300CCF0A3C8C582C8CCC583CCDFE9DEE7804A
:100093000D89828A83E493A3F608DFF9ECFAA9F0C9
:1000A300EDFB2289828A83ECFAE0A3C8C582C8CC1F
:1000B300C583CCF0A3C8C582C8CCC583CCDFEADE38
:1000C300E880DB89828A83E493A3F208DFF980CC9A
:1000D30088F0EF60010E4E60C388F0ED2402B40493
:1000E3000050B9F582EB2402B4040050AF2323453A
:0600F3008223900053730C
:00000001FF
